S02000006D756C746920697372207769746820706572696F726974792E7372656388
S11300000C942A000C94B9030C94F5030C942B045F
S11300100C9447000C9447000C9447000C94470040
S11300200C9447000C9447000C9447000C94470030
S11300300C9447000C9447000C9447000C94470020
S11300400C9447000C9447000C9447000C94470010
S11300500C94470011241FBECFE5D8E0DEBFCDBF0E
S113006010E0A0E6B0E0EAEBF8E002C005900D92E3
S1130070A036B107D9F710E0A0E6B0E001C01D92A8
S1130080A036B107E1F70E9475030C945B040C944D
S1130090000040E00E94500008950E94BF010895AE
S11300A0843409F471C0853448F4823499F183347A
S11300B008F04DC0813409F083C00FC0823651F17D
S11300C0833620F4813609F07BC007C0833609F4F7
S11300D03EC0843609F074C057C0413069F42AB375
S11300E081E090E0AC0102C0440F551F6A95E2F72D
S11300F0BA01622B6ABB08952AB381E090E0AC0197
S113010002C0440F551F6A95E2F7BA016095622355
S11301106ABB0895413069F427B381E090E0AC01F3
S113012002C0440F551F6A95E2F7BA01622B67BB00
S1130130089527B381E090E0AC0102C0440F551F3D
S11301406A95E2F7BA016095622367BB089541306E
S113015069F424B381E090E0AC0102C0440F551F60
S11301606A95E2F7BA01622B64BB089524B381E077
S113017090E0AC0102C0440F551F6A95E2F7BA0142
S11301806095622364BB0895413069F421B381E032
S113019090E0AC0102C0440F551F6A95E2F7BA0122
S11301A0622B61BB089521B381E090E0AC0102C0F1
S11301B0440F551F6A95E2F7BA016095622361BB4B
S11301C00895843409F471C0853448F4823499F173
S11301D0833408F04DC0813409F083C00FC08236E7
S11301E051F1833620F4813609F07BC007C0833691
S11301F009F43EC0843609F074C057C0413069F434
S11302002BB381E090E0AC0102C0440F551F6A9506
S1130210E2F7BA01622B6BBB08952BB381E090E047
S1130220AC0102C0440F551F6A95E2F7BA0160950C
S113023062236BBB0895413069F428B381E090E0F8
S1130240AC0102C0440F551F6A95E2F7BA01622B54
S113025068BB089528B381E090E0AC0102C0440F6C
S1130260551F6A95E2F7BA016095622368BB089549
S1130270413069F425B381E090E0AC0102C0440F41
S1130280551F6A95E2F7BA01622B65BB089525B341
S113029081E090E0AC0102C0440F551F6A95E2F77B
S11302A0BA016095622365BB0895413069F422B3B5
S11302B081E090E0AC0102C0440F551F6A95E2F75B
S11302C0BA01622B62BB089522B381E090E0AC01D5
S11302D002C0440F551F6A95E2F7BA016095622384
S11302E062BB0895843409F43DC0853440F48234FB
S11302F0F9F0833450F5813409F040C00CC08236E3
S1130300B9F0833618F48136C9F505C08336E9F0AF
S11303108436A1F527C02BB381E090E0AC0102C084
S1130320440F551F6A95E2F7BA0162276BBB089523
S113033028B381E090E0AC0102C0440F551F6A95D8
S1130340E2F7BA01622768BB089525B381E090E023
S1130350AC0102C0440F551F6A95E2F7BA01622747
S113036065BB089522B381E090E0AC0102C0440F64
S1130370551F6A95E2F7BA01622762BB0895843477
S1130380B1F1853438F48234E1F0833428F58134D2
S1130390C9F50CC08236A9F0833618F4813691F57C
S11303A005C08336C9F0843669F521C029B330E02D
S11303B0C90102C0959587956A95E2F7817090709E
S11303C0089526B330E0C90102C0959587956A95D2
S11303D0E2F781709070089523B330E0C90102C040
S11303E0959587956A95E2F781709070089520B38A
S11303F030E0C90102C0959587956A95E2F781704E
S11304009070089580E090E008958434D9F08534A4
S113041038F4823499F0833498F48134A1F40CC014
S1130420823661F0833618F4813669F405C0833668
S113043039F0843641F406C06ABB089567BB089559
S113044064BB089561BB08958434D9F0853438F4CD
S1130450823499F0833498F48134A1F40CC0823648
S113046061F0833618F4813669F405C0833639F0B7
S1130470843641F406C099B305C096B303C093B360
S113048001C090B3892F08958434D9F0853438F4A9
S1130490823499F0833498F48134A1F40CC0823608
S11304A061F0833618F4813669F405C0833639F077
S11304B0843641F406C06BBB089568BB089565BBE0
S11304C0089562BB0895843409F1853438F4823484
S11304D0A9F08334B8F48134E1F40CC0823671F0AD
S11304E0833618F48136A9F405C0833659F084366E
S11304F081F40CC08BB380958BBB089588B3809531
S113050088BB089585B3809585BB089582B3809593
S113051082BB0895843409F471C0853448F482346C
S113052099F1833408F04DC0813409F083C00FC0C1
S1130530823651F1833620F4813609F07BC007C03E
S1130540833609F43EC0843609F074C057C0413084
S113055069F42BB381E090E0AC0102C0440F551F55
S11305606A95E2F7BA01622B6BBB08952BB381E065
S113057090E0AC0102C0440F551F6A95E2F7BA013E
S1130580609562236BBB0895413069F428B381E020
S113059090E0AC0102C0440F551F6A95E2F7BA011E
S11305A0622B68BB089528B381E090E0AC0102C0DF
S11305B0440F551F6A95E2F7BA016095622368BB40
S11305C00895413069F425B381E090E0AC0102C0A4
S11305D0440F551F6A95E2F7BA01622B65BB089573
S11305E025B381E090E0AC0102C0440F551F6A9529
S11305F0E2F7BA016095622365BB0895413069F45E
S113060022B381E090E0AC0102C0440F551F6A950B
S1130610E2F7BA01622B62BB089522B381E090E055
S1130620AC0102C0440F551F6A95E2F7BA01609508
S1130630622362BB0895CF93DF93C82FD62F462F32
S1130640417060E00E94E1004D2F469541708C2F6F
S113065061E00E94E1004D2F4695469541708C2F34
S113066062E00E94E100D695D695D6954D2F417053
S11306708C2F63E00E94E100DF91CF910895CF9326
S1130680DF93C82FD62F462F417064E00E94E1000B
S11306904D2F469541708C2F65E00E94E1004D2F4F
S11306A04695469541708C2F66E00E94E100D695F0
S11306B0D695D6954D2F41708C2F67E00E94E100AE
S11306C0DF91CF91089541E00E945000089541E0E8
S11306D00E94E100089540E00E94E10008950E9414
S11306E0720108950E94BF01089582E660E00E94AD
S11306F0630382E661E00E94630382E663E00E9492
S1130700630384E690E062E070E00E94490084E6BE
S113071090E063E070E00E94490082E690E062E0CD
S113072070E00E94490078948BB780648BBF8BB7CC
S113073080688BBF8BB780628BBF85B7816085BFB4
S113074085B7826085BF85B7846085BF85B78860BB
S113075085BF84B7806484BF82E660E00E946B0337
S113076082E661E00E946B0382E663E00E946B0311
S1130770F3CF1F920F920FB60F9211242F933F9332
S11307804F935F936F937F938F939F93AF93BF9395
S1130790EF93FF9378948BB78F778BBF8BB78F7D55
S11307A08BBF82E660E00E9467038FEF93EDA0E3C6
S11307B081509040A040E1F700C000008BB78068F2
S11307C08BBF8BB780628BBFFF91EF91BF91AF91CD
S11307D09F918F917F916F915F914F913F912F9155
S11307E00F900FBE0F901F9018951F920F920FB687
S11307F00F9211242F933F934F935F936F937F93A3
S11308008F939F93AF93BF93EF93FF9378948BB79A
S11308108F7D8BBF82E661E00E9467038FEF93EDCB
S1130820A0E381509040A040E1F700C000008BB7E6
S113083080628BBFFF91EF91BF91AF919F918F9198
S11308407F916F915F914F913F912F910F900FBEC8
S11308500F901F9018951F920F920FB60F921124AC
S11308602F933F934F935F936F937F938F939F93B4
S1130870AF93BF93EF93FF93789482E663E00E9473
S113088067038FEF93EDA0E381509040A040E1F720
S113089000C00000FF91EF91BF91AF919F918F91A4
S11308A07F916F915F914F913F912F910F900FBE68
S10D08B00F901F901895F894FFCFE5
S9030000FC
